:020000041000EA
:10000000002008205D0100101B0100101D010010E0
:100010001101001011010010110100101101001058
:100020001901001019010010190100101F01001022
:10003000110100101901001021010010230100100E
:100040001101001011010010110100101101001028
:100050001101001011010010110100101101001018
:100060001101001011010010110100101101001008
:1000700011010010110100101101001011010010F8
:1000800011010010110100101101001011010010E8
:1000900011010010110100101101001011010010D8
:1000A00011010010110100101101001011010010C8
:1000B00011010010110100101101001011010010B8
:1000C00011010010110100101101001011010010A8
:1000D0001101001011010010110100101101001098
:1000E0001101001011010010110100101101001088
:1000F0001101001011010010110100101101001078
:100100001101001011010010110100101101001067
:10011000EFF30580103800BE00BE00BE00BE00BE7A
:1001200000BE00BEF2EB887184B90010A8B90010BF
:10013000A001001090A31AE7D3DEFFFF42012110B7
:10014000FF010000A8D00000793512AB4FF000008D
:100150001E49086006C881F3088810474FF05040D8
:10016000006810B14FF00000F2E70DA40ECC00299A
:1001700002D000F012F8F9E71549164A002000E015
:1001800001C19142FCD11449884714498847144958
:10019000884700BEFDE701C901C29A42FBD3704700
:1001A000A8B900101001002048190020E0D100106B
:1001B0000000082000000820E0D1001000100820F6
:1001C00000100820000000007047000008ED00E06B
:1001D00048190020B8270020214E0010B904001053
:1001E000194E0010F8B500BF064B0749C91A89100F
:1001F00048BF0131491003D0044B0BB101481847E7
:10020000704700BF48190020481900200000000076
:1002100008B5054B1BB105490548AFF30080BDE8A3
:100220000840FFF7E1BF00BF0000000000270020EA
:1002300020B1001010B5044607F09AFB4FF0504271
:10024000136D9B07FCD5546540BF0248BDE81040C4
:1002500007F004BC090300100022002307F05CBB78
:10026000F8B50B462DED028B04210F20174608EE42
:10027000103A01F0D1FA052002F0CCFC07EE900A0A
:10028000F3EE046AF8EE677AB8EE488A87EEA67A4B
:10029000C7EE087AFCEEE77A17EE903A4FF4A072B8
:1002A000164C9BB2C4F89C30C4F89020D4F8982027
:1002B000134D5B08134E82EA03432B40C6F8983077
:1002C000D4F88C303846DB4303F00103C6F88C3099
:1002D000002102F0BDFABDEC028BD4F898301F214A
:1002E0002B40C6F89830D4F88C300F2003F001036F
:1002F000C6F88C30BDE8F84001F08EBA00800A40A4
:100300000000FFFF00900A404FF050422DE988485E
:10031000136DDC0703D420BF136DD807FBD54FF056
:100320005043DFF8B490DFF8B480294F9E6D4FF052
:100330005042136DD90703D420BF136DDB07FBD5E3
:100340004FF050439D6D02F0E1FB05FB00F00AF019
:1003500063FBB5F5006F39D00AF066FBA9FB0523F6
:100360001B090233B0FBF3F202FB1300841C4FF0B5
:10037000000A184D0AF058FB83460AF055FBA7FB0C
:100380000B234FF49671024640F6C41C5B0901FB37
:1003900013B1A8FB02E3DB0A0CFB132201F2DC51D0
:1003A00002F5FA723046FFF75BFF0AF03DFBA5FB52
:1003B00000231B0903EB8303A0EB830005300AF144
:1003C000010A02F0B1FAA245D4D1B0E70124CEE788
:1003D000B5814E1BCDCCCCCC1F85EB515917B7D175
:1003E000014B1860704700BF5027002030B9044B04
:1003F0001B681BB1187880F001007047012070471E
:100400005027002068B910B50A4C206838B109F0AF
:1004100033FB40B92368187880F0010010BD01203B
:1004200010BD0120704702460349042007F020FD5B
:10043000F0E700BF5027002020B1001088B90A481B
:10044000006870B108B509F063FC0F2805D01028CA
:1004500005D0003818BF012008BD032008BD0420C6
:1004600008BD0320704700BF5027002088B90A4804
:10047000006870B108B509F0ABFC0F2805D0102852
:1004800005D0003818BF012008BD032008BD042096
:1004900008BD0320704700BF5027002030B9044B2F
:1004A0001B68002B0CBF03200020704703207047FF
:1004B000502700200000000030B589B0344807AB59
:1004C00006AA05A902F06EFC18B93149314801F0BD
:1004D00057FADDE90612059802F0A2FB04F0C8FD08
:1004E00001214FF4A16003F0D3F813254FF0120C53
:1004F0004FF0010E142215230446C0E921C580F8EF
:1005000094E025492830C4E92323244D09F0E4FE72
:1005100011E004202B46224907F0AAFC204601F0F6
:1005200019F8042041F288321E4907F0A1FC41F27B
:10053000883002F0F9F9204600F06AFF0028F0D177
:100540002046194900F0C6FF0028EAD1D4F8042556
:10055000AA42DED11549022007F08AFC204600F0AD
:10056000BBFA22209FED087B0223009040F2672215
:100570008DED027B18460E4907F07AFC204600F00C
:10058000DDFEFBE7AFF300800000000000001E402E
:10059000400D030034B1001040787D01D8F72C03E2
:1005A00074B1001004B2001068B10010B0B10010B6
:1005B000C4B100100369B3F5006F05D0036980680A
:1005C000C01A18BF01207047002070472DE9F0477E
:1005D0002E4D01292B6804469A462D4B4FF0A0481A
:1005E0001E682C4B4AF634171A680B4628BF0123A5
:1005F0004FEA861CC3F1000EE36063680CEB080948
:100600000EEA070E24492548D9F810709E44244B61
:1006100009680068C5F800E01D6827F4F03392010E
:100620008901800143EA4633424441444044C9F8C9
:10063000103013695B01FCD40B695B01F9D40369C9
:100640005B01F6D40123B340C8F864340CF1A04236
:10065000D3685B01FCD452460CF1A04CDCF80030AE
:10066000CCF810709B1AA5EB93057344CCF8385066
:10067000CCF83C3002F04AFA02460B464FF40060D8
:10068000C4E90823BDE8F047FFF7E6BD5C2700207A
:1006900040130020381300203413002030130020B2
:1006A00058270020064B186848B14FF05042516857
:1006B000C368C1F30011994201D0FFF787BF7047AB
:1006C000E8220020684A38B51368684D23F0020319
:1006D00013602B680446002B08DB184607F026FB46
:1006E000286807F00DFB4FF0FF332B60604D286842
:1006F000002807DB07F01AFB286807F001FB4FF022
:10070000FF332B605B4D2868002807DB07F00EFBEA
:10071000286807F0F5FA4FF0FF332B60564A574D23
:100720001368286823F002030028136007DB07F032
:10073000FDFA286807F0E4FA4FF0FF332B60504DC4
:100740002868002807DB07F0F1FA286807F0D8FAD4
:100750004FF0FF332B604B4D2868002807DB07F074
:10076000E5FA286807F0CCFA4FF0FF332B60464DCE
:100770002868002807DB07F0D9FA286807F0C0FAD4
:100780004FF0FF332B60384A404D1368286823F040
:1007900001030028136007DB07F0C8FA286807F098
:1007A000AFFA4FF0FF332B60334A394D1368286896
:1007B00023F001030028136007DB07F0B7FA28686D
:1007C00007F09EFA4FF0FF332B602B4A314D136830
:1007D000286823F004030028136007DB07F0A6FA5B
:1007E000286807F08DFA4FF0FF332B601E4D22482A
:1007F0002B6823F008032B602B6823F004032B6085
:1008000007F0CAF92846002507F0C6F9224A2B4608
:1008100015600C212A46042001F030F81F21072022
:1008200000F0FAFF1F21062000F0F6FF1F2105202F
:1008300000F0F2FF1F21082000F0EEFF1F21092029
:1008400000F0EAFF1F210A2000F0E6FF606802F0D6
:100850003FFF206802F03CFF29462046BDE83840B3
:1008600028220AF02FB900BF0000305018130020D2
:100870001C13002020130020000020503013002003
:1008800034130020381300203C13002024130020D0
:100890004013002028130020E82200202DE9F04713
:1008A0008368DFF82481427D054608FB03FA82B0A5
:1008B000002A6CD101269146174614461EE04B1CB7
:1008C0002ED0A9EB01035B0209B203EB41224245A2
:1008D0006A684FEA412188BFA8EB01030A44284611
:1008E00051441F4400F082FE00283ED10134AB2C5D
:1008F00006F101065DD0AA2C224622D04FF0FF312E
:10090000A869035D002BDAD04B1C25D00134AA2C3A
:10091000B14606F10106D4D0035D002BD1D0F5E736
:100920000134AA2C214606F101060BD0035D002BF1
:10093000F6D00134AA2CB146224606F10106E0D1D8
:10094000BFE7A869AA2200210AF0BCF80023AB8205
:10095000384602B0BDE8F0870134AA2C1146B146F2
:10096000224606F10106CCD1ABE7AA220190002174
:10097000A8690AF0A7F80022019BAA821A4604205F
:10098000104907F075FA384602B0BDE8F0874346D3
:100990005146426800F02AFEAA2201900021A8696F
:1009A0000AF090F80022019B4746AA82002BE5D16D
:1009B000CEE701460190AA22A8690AF083F8019BBC
:1009C000AB82C5E71CB2001068520100F0B540F2DE
:1009D00066258D424FF00A024FF000030E46044692
:1009E00028BF0D4683B043EC402011B1092243ECEF
:1009F00040204FF40063A0682361984265D0A8426C
:100A000094BF281A401BFFF727FC237D23B3677D83
:100A1000DFB9A0697B1E00F1540E4FF0000C0344B7
:100A2000BE4401E09E450DD013F8012F002AF9D0F5
:100A30000CF1010CBCF12A0FF4D1552201213844EC
:100A40000AF040F80FB95527E3E702F05FF82046B7
:100A5000FFF724FF02F05AF8A3689D4229D0A56051
:100A600002F054F81A4A1B4B0092204603FB05F192
:100A7000626800F081FD48B14FF400610A234FF035
:100A80000102A16042EC403003B0F0BD02F03EF83C
:100A900002F03CF8C4E9080126B909234FF001022D
:100AA00042EC40300A234FF0010242EC403003B0E8
:100AB000F0BD4FF42A70002101F0CAFE0A234FF066
:100AC000010242EC403003B0F0BD00232375C6E7BD
:100AD000B5050010685201002DE9F04F2DED028B95
:100AE00091B00646FFF7EEFD482002F0B5FD3060FC
:100AF000002800F01584D84802F0AEFD7060002890
:100B000000F00C84AA21012002F0C2FDB06100288F
:100B100000F0F9833046FFF78DFB4FF4E06000F002
:100B200001FF4FF4E06340EE14300A224FF001035E
:100B300043EC4020092243EC4020082243EC4020B3
:100B40000621052000F068FE0621084600F064FE3C
:100B5000C24C0621072000F05FFE01220C21042078
:100B6000BF4B266000F08AFE4FF400630021B360A3
:100B70003046FFF72BFFBB49BB4806F093FFBB494C
:100B80008246B94806F08EFFB9498146B64806F05C
:100B900089FFB8498046B84806F084FFB749074640
:100BA000B54806F07FFFB6490546B34806F07AFF20
:100BB0004FF09B0E3368B349B34ADFF8F0C25A6472
:100BC000C3E900ECC3E90211C3E90411C3E906114A
:100BD000C3E90811C3E90A11C3E90C11C3E90E11F5
:100BE00019640446052002F015F807EE100A9FED7F
:100BF000A76AB8EE477ADFEDA66AC7EE067A77EE07
:100C0000A67A4FF4C023BCEEE77A0E934FEA0A337C
:100C100043EACA130D9317EE103A9AB2002A00F075
:100C20006C8307EE102AB8EE477ADFED9A6A77EE0A
:100C3000C77A67EEA67AFCEEE77ACDED037A9DF8E7
:100C40000C301B0243EA02430C93934B52460DF1C6
:100C5000300A00210F938448534606F0FDFF01231C
:100C6000052200930021804806F0B0FF052001F026
:100C7000D1FF07EE100A9FED856AB8EE477ADFEDE7
:100C8000846AC7EE067A77EEA67A4FF4C023BCEEEC
:100C9000E77A09F104020E934FEAC91343EA0233DB
:100CA00023F0C04343F080430D9317EE103A9AB2FD
:100CB000002A00F0268307EE102AB8EE477ADFED0F
:100CC000756A77EEC77A67EEA67AFCEEE77ACDED25
:100CD000037A9DF80C301B0243EA02430C936F4BDE
:100CE0004A4601210F936048534606F0B5FF0121A3
:100CF0000223062200915C4806F068FF4FF480331F
:100D00000C934FF4403308F10A020E934FEAC813D4
:100D100043EA023323F0F85343F050630D93604BE2
:100D2000424602210F935048534606F095FF052096
:100D300001F070FF07EE100A9FED5A6AB8EE477A8D
:100D40000023C7EE067ADFED526A0B934FF440237F
:100D500077EEA67A07F10D0C0A934FEA0C3C7B1C48
:100D60004FF480324CEAC31CBCEEE77A4FF4F83300
:100D7000CDE9082317EE103A4FF410290DF1200E9B
:100D80001FFA83F89EE80F008AE80F00CDE90DC92D
:100D90009AE80F008EE80F00B8F1000F00F0AF8264
:100DA00007EE108AB8EE477ADFED3A6A77EEC77A37
:100DB00067EEA67AFCEEE77ACDED037A9DF80C306B
:100DC0001B024FF4C0314FF4803943EA08434FF41B
:100DD00040384FF0007B2CF0F85C3A46264F0893E1
:100DE0004CF0407309930B9173460021384606F08E
:100DF00033FF2D4BEA1C0F93EB0143EA0233012131
:100E00002A460D9338465346CDF83090CDF83880B9
:100E1000E50106F021FF631C45EA03350221534634
:100E2000224638460D95CDE90E8BCDF8309006F070
:100E300013FF3868032140F004003860534622460F
:100E40003846CDE90C95CDE90E8B06F005FF3B68E1
:100E5000054A43F008032BE068520100E822002015
:100E6000A506001060B60010000020504CB600101F
:100E70002CB6001008B6001000003050F8B5001075
:100E8000ECB500107E4C1D8300001D83C0E1644B57
:100E90000000003B000080430500100006182060A1
:100EA0000000060250A92B4D000001027E4C1DC31C
:100EB000B16806F110053B6053685803FCD446F254
:100EC00020039161C449C2F80831D1F8FC30002BED
:100ED000FBDBC14A53685903FCD440F2662146F259
:100EE0004003BD4C9161C2F80831D4F8FC30002BAE
:100EF000FBDB012006F00AFF0346DFF83CB3B74AEC
:100F0000B74913600BEA43329B0103F1A043196018
:100F10004FF0FF3142F4402242F009025D609960D7
:100F2000DA602368012043F00403236006F0EEFE3C
:100F3000034600250120AB4AAB4913600BEA43325C
:100F400042F080729B0103F1A04342F019021D6040
:100F500059609D601A612368A44F0343236006F023
:100F6000D5FE034601203268766803920496A04EAF
:100F70000BEA4332336042F08C729E4E9B0103F1C8
:100F8000A04342F049021E605D609D601A613B68AB
:100F9000944A03433B60D2F8008006F0B7FEDFF8C6
:100FA0009CA2DFF89C92CAF80000012006F0AEFE79
:100FB000C9F80000012006F0A9FE8F4A8F4E10608C
:100FC000012006F0A3FE8C4AD9F800C011680590F4
:100FD0004FEA88100690880106EA4131DAF80020CD
:100FE00041EA4C3141F4FC010BEA423E41F0090177
:100FF00006F5F03607914EF400314FEA8C1E06EAF2
:101000004C3C022600F1A04A50460EF1A0490AF1DC
:10101000280AC9F80050C9F804A0C9F808600126D8
:10102000920102F1A04842464CF4FC0C4CF49A5C4C
:101030004CF0190CC9F810C0056045608660079E29
:1010400041F0190106616E48C8F80050C8F8040064
:10105000C8F80850C8F8101006996A4B01F1A04C66
:101060001C325A6162466848039E1C320660DA618F
:10107000049E664ADCF81010166012269A60644AD4
:10108000C3F80CC01860C3F804800598166042F6D7
:101090004D261A615F4A21F4F0319A6116605E4A6A
:1010A00009F13C0E10605D4A41EA4031164602EA01
:1010B00040399FED478B82010120DFF8888149F498
:1010C000FC0902F1A04249F0090983ED088BCCF834
:1010D0001010C2F80080C2F804E09060C2F80C90D2
:1010E0002368404A43F002032360414BD2F800904A
:1010F000D3F8008006F00AFEDFF84CA14FEA891908
:10110000CAF80000012006F001FE454A454C106077
:10111000012006F0FBFD424ADFF830C11168DAF821
:101120000020CCF8000006EA423E3F4E3F4B4EEA1C
:1011300006060496314E06EA413E4EEA423E4EF421
:10114000FC0646F00906059601264FEA821E0BEAC8
:10115000403242F4D01B820102F1A0424FEA8810D3
:10116000039206FA08F83246314E8901C6F800802B
:10117000022601F1A048414600F1A04C08F12808E0
:1011800000F1A04A0EF1A0400560C0F8048086601E
:10119000049E00F13C0E066105980D60154E4D60F1
:1011A0008A60086123480CF1040C1E60586003F14A
:1011B00010020CF50060049093E8030082E803003D
:1011C000083282E8030009F1A04641E0AFF3008055
:1011D0000000000000000000000020502813002044
:1011E00028002050401300201000205000003050F4
:1011F000241300202000305034130020FD1F7EFCFB
:1012000014002050D01A0020642700205C27002002
:10121000602700205827002030130020FDFF7FFCAE
:101220001C1300206827002059137E00F81A0020A4
:101230008C27002088270020FDFF01FC3C130020A4
:10124000381300202C130020201300201813002036
:10125000344A9E6003F12008083603F1280988E823
:101260000300C3F80CC089E803001E63C4E9032C23
:10127000043262612C4A0399626004982B4E02F595
:101280003F1202F56F520AF11C0A83ED0E8BC4E97E
:101290000655C3F834A0A06026600A600A46C1F86B
:1012A00004E04FF0FF314BF0090B9160C2F80CB035
:1012B0007A689203FCD446F220011D4A7B61C7F88C
:1012C000F010D2F8E430002BFBDB19494B689B038C
:1012D000FCD446F24003164A4C61C1F8F030D2F813
:1012E000E430002BFBDB0020136843F002031360A3
:1012F00011B0BDEC028BBDE8F08F1346A2E443466B
:101300005FE51346E8E4AA2204200A4906F0B0FD8E
:101310003046FFF7D7F94FF0FF30E9E7064AF3E729
:101320004822F1E718003050640400508C27002058
:10133000000030502CB2001068520100016970B5F5
:10134000B1F5006F044601D0FFF740FB2C4DEB6870
:101350001B0F33D0EA6AAE6AAB6813F4402F42D158
:101360004AF6341C4AF633136168A3EB8603521A1B
:101370002449551EA1FB05E1490B0CFB11551344F3
:101380005B1B5B0AB3EB522F4FEA52200AD80125B0
:1013900004E0A1699842CD5404D01346A92B03F16F
:1013A0000102F6D90123237501F0B0FB02460B467A
:1013B0004FF40060C4E90823FEF74EFF237D03B914
:1013C00070BDD4E9085601F0A1FB00230E4A401B72
:1013D00061EB060182428B41F2DA2046A168BDE84A
:1013E0007040FFF7F3BA0420084906F041FD0123DD
:1013F0004FF47022AA606375237D002BE0D0E0E7F4
:101400000000305055496A30404B4C0054B2001037
:1014100070B500F12805044688B0284608F02CFB7A
:10142000002837D1236D244904F14A020220DB0A47
:1014300006F01EFD2846FEF7D3FF01221F4904F1E6
:10144000A80007F0D5FC80BB94F8A8300024013B2D
:10145000DBB2032B98BF1A4A04A998BF52F8236045
:10146000164803AA88BF174ECDE90344CDE90544C9
:101470008DF81C4008F074FA039D3246AEB22D0C74
:101480000220114904AB0196009506F0F1FC2046BC
:1014900008B070BD02460D49042006F0E9FC0020AA
:1014A000FEF79EFF4FF0FF30F2E7024608490420A6
:1014B00006F0DEFCF6E700BFA0B20010D8B50010C1
:1014C0006CB600106CB20010ECB2001074B20010D8
:1014D000C0B20010F8B500F536770322044638464E
:1014E0000E4607F0B5FC054638BB324602201649C9
:1014F00006F0BEFCD4F8E432B3F5801FC4F804351E
:1015000001D20020F8BD802002F0A6F80346C4F8FE
:10151000000378B1202238464FF0FF311A6008F0FE
:1015200035F80028EDD002460849042006F0A0FC5A
:10153000C4F800534FF0FF30F8BD024604490420C0
:1015400006F096FCF6E700BF40B300104CB3001065
:101550001CB3001010B50446D0F8000302F0B8F830
:10156000002304F53670C4F80033C4F80435BDE830
:10157000104007F0A5BF00BF2DE9F041002500F5A0
:10158000367882B00446404617461E46019507F05D
:10159000FDFFF0B90546089B3246C4E91D343946C3
:1015A00001AB404684F87C5007F098FD94F87C30FD
:1015B0000246656793B968B9019AB24203D1002027
:1015C00002B0BDE8F08133460320064906F050FC26
:1015D000F5E702460420044906F04AFC4FF0FF30CC
:1015E000EEE700BF80B3001098B30010F0B50027FD
:1015F00000F5367583B0284616461C46019707F05D
:10160000C5FF90B922463146284601AB07F04CFE93
:1016100058B9019AA24202D1002003B0F0BD23467E
:101620000320064906F024FCF6E70246044904209C
:1016300006F01EFC4FF0FF30EFE700BFB8B300101C
:10164000D4B300104FF050422DE9F84F6D4BD2F853
:1016500000A053F82A70BAF1000F2CD0DFF8B08147
:101660006FB30026DFF8A0B1DFF8A091F3080C33C8
:1016700058F8235034460836CDB105F00F01204606
:101680002D09013489B15BF82A2000F00703C2401C
:101690004FEAD00C9B00D20701FA03F30CF18C0C3B
:1016A00002D449F82C30B8470DB1B442E5D3202E0E
:1016B000DCD1BDE8F88FDFF85C81002FD1D1524832
:1016C000F90801F10C0358F82330002B7BD013F0FC
:1016D0000F054FEA13120AD050F82A40FC40E607E3
:1016E00003D44A4C8C3144F82150002A6BD012F0BC
:1016F0000F024FEA13210DD050F82A407D1CEC4018
:10170000E40705D4EC08414D12018C3445F824203F
:10171000002958D011F00F014FEA133207D050F8CA
:101720002A40BD1CEC40E60757D5002A4BD012F0EA
:101730000F024FEA134107D050F82A40FD1CEC403D
:10174000E40751D500293ED011F00F014FEA1352A2
:1017500007D02D4C54F82A503C1DE540EE074AD5E1
:101760008AB312F00F024FEA13610DD0264C54F8E1
:101770002A507C1DE540ED0705D4244DE4081205F0
:101780008C3445F82420F1B111F00F014FEA1373A6
:101790001FD01D4CBD1D54F82A20EA40D60705D4A1
:1017A000EA081A4D09068C3245F822105BB154F84C
:1017B0002A10FA1DD140C90705D41449D2081B07C5
:1017C0008C3241F822300837202F7FF479AFBDE802
:1017D000F88F002BF7D00C4CE9E7EC080B4D090211
:1017E0008C3445F82410A0E7EC08084D12038C3423
:1017F00045F82420A6E7054DE40809048C3445F893
:101800002410ADE770220020402700200080024015
:10181000908202404882024010B44FF480740C4B16
:1018200053F8202003EB8003C00082F0400200F157
:10183000804003F5805C02F0C00200F5203003F523
:101840004053CCF8002041601C605DF8044B7047A9
:101850000480034010B4084CC90041EA820154F8E6
:10186000202004EB8003514003F5805301F00C016C
:101870005DF8044B19607047048003402DE9F04384
:101880004FF050491F46DFF89880D9F800301646CF
:1018900058F8232004460D4683B032B387B348F886
:1018A00023704FF050431B68BBB1194BE10804F0A3
:1018B0000704184AA40005FA04F403EB81038C31F1
:1018C00042F821405EB10121152003F500531C6050
:1018D00003B0BDE8F04300F06BB90F4BE6E703F54A
:1018E00040531C6003B0BDE8F083002FDCD015200E
:1018F0000A4948F8237000F0CDF9D9F80030D3E751
:1019000015200649019300F0B9FA019BC7E700BF13
:10191000908202400080024048820240451600103A
:101920007022002000232DE9F04105274FF4807636
:101930001C46114A114DC10714D544EC443044EC07
:101940004030116802F5805881F0400105EBC30E6C
:1019500002F5405C01F0C001C8F80010CEF8047038
:10196000CCF8006001331E2B4FEA500002F1040254
:10197000E1D1BDE8F08100BF048003400080024057
:101980000FB400B583B0049C074803F0B5FB3CB12D
:1019900005A92046019103F00FFA044803F0ACFBBF
:1019A000012003F021FA00BF14B4001024B4001089
:1019B000EFF3108072B6064BD3E8CF1F0122002947
:1019C000FAD1C3E8412F0029F6D1BFF35F8F7047EA
:1019D0005B1E00200023034AC2E88F3F80F310887B
:1019E000704700BF5B1E002070B58646EFF3108580
:1019F00072B6124CD4E8CF6F0120002EFAD1C4E8A1
:101A0000460F002EF6D1BFF35F8F4FF0010CC808D0
:101A100001F007030CFA03F31EF800C01CEA0306EA
:101A200008D14CEA030C0EF800C0C4E88F6F85F3B0
:101A3000108870BD1046FFF7A3FF00BF5B1E00209B
:101A4000F8B5EFF3108772B61C4ED6E8CF5F0124CD
:101A5000002DFAD1C6E8454F002DF6D1BFF35F8FB8
:101A60009A421BD8012502E00132934222D3D408C6
:101A700010F804E002F0070C05FA0CFC1EEA0C0F4B
:101A8000F2D14EEA0C0E00F804E010460023C6E83E
:101A90008F3F87F31088984207DBF8BD0023C6E824
:101AA0008F3F87F310884FF0FF300029F5D006985C
:101AB000FFF766FF4FF0FF30E8E700BF5B1E002036
:101AC00000B5EFF3108E72B6104BD3E8CFCF0122E2
:101AD000BCF1000FF9D1C3E84C2FBCF1000FF4D1D9
:101AE000BFF35F8F01224FEAD10C01F0070102FA28
:101AF00001F110F80C2022EA010200F80C2000226B
:101B0000C3E88F2F8EF310885DF804FB5B1E002066
:101B1000044A1078431CDBB2182B28BF1023137023
:101B2000704700BF4413002010B5054C82B0014639
:101B30001F23182200940348FFF782FF02B010BD54
:101B400028B40010802200204FF0E022936843F078
:101B500000539360704700BF0021044B03F1200243
:101B6000C3E88F1F01339342FAD17047501E002003
:101B70004FF0E0234FF08032C3F80024C3F8042470
:101B8000C3F80824C3F80C24C3F81024C3F81424A1
:101B9000C3F81824C3F81C24C3F82024C3F8242451
:101BA000C3F82824C3F82C24C3F8302462B6704745
:101BB000012300F01F029340400941B1800000F171
:101BC000604000F56140C0F8803103607047024A10
:101BD000203042F82030704700E100E00123064A3F
:101BE000410952F8212000F01F0003FA00F01040D4
:101BF000003818BF0120704700E100E001224309CE
:101C0000034900F01F008240403341F82320704711
:101C100000E100E0054A10309268054B52F82000C0
:101C2000C01A2F288CBF00200120704700ED00E073
:101C300048130020F8B50D46EFF3108772B6124E28
:101C4000D6E8CF2F0123002AFAD1C6E8423F002A66
:101C5000F6D1BFF35F8F0D4B00F110049B680C4A67
:101C600053F82430934203D0994201D001F06CFA2A
:101C7000064B9B6843F82450BFF35F8F0023C6E8F0
:101C80008F3F87F31088F8BD591E002000ED00E05B
:101C9000110100102DE9F04F81468B46164683B0A6
:101CA000EFF3108372B6DFF8D0A10093DAE8CF1F0C
:101CB00001230029FAD1CAE8413F0029F6D1BFF338
:101CC0005F8F664B93F90040002CC0F2A080644DFA
:101CD00004EB440705EB870898F8061009F1100992
:101CE0001970604BBF009B6853F829006300411BCB
:101CF0002F292FD95C49884240F0A4801C445B4BBB
:101D000002372F44043BDB1BC3F34A036FEAC34390
:101D10004FF421416FEAD34325F8241005EB8404E6
:101D200063804BF60153A380FF2348F00100E67166
:101D3000C4F808B0A3714B4B9B6843F82900BFF36C
:101D40005F8F0023CAE88F3F009B83F3108803B0A6
:101D5000BDE8F08F20F0010E9EF80710B1422ED89A
:101D60004FF42143EB53414BB91C2944043B043746
:101D70005B1A2F44AEF10401C91BC1F34A043C496C
:101D8000C3F34A030B432143A8F804103949A8F8C8
:101D900002304AF6AA2073465B1B5B415843000D94
:101DA00088F8076088F80600C8F808B048F0010015
:101DB000CEF80010BFE7D179B1422ED996469EF9F0
:101DC00006C00CEB4C02BCF1000F05EB8202F2DA0C
:101DD0004BF601510EF10402A8F10407BF1AC7F334
:101DE0004A076FEAC7476FEAD7478EF8064003EB0A
:101DF0000408204C05EB8803AEF8047045F8284031
:101E0000998083F806C0DE71C3F808B093E701F04B
:101E10009BF9124B93F9004059E7724632F8041FC0
:101E2000490514D44915023102EB410101916FF0CB
:101E30000701C91B019F491B3944C1F34A0141F401
:101E40006041C9E7019301F07FF9019B56E701F575
:101E5000FF1101F5FF511F31E4E700BFB227002059
:101E60004813002000ED00E011010010781300205D
:101E700000E0FFFF01488047591E00202DE9F04F88
:101E800083B0EFF3108A72B6714ED6E8CF2F0123DC
:101E9000002AFAD1C6E8423F002AF6D1BFF35F8F8D
:101EA0006C4B00F110089B686B4A53F82850954220
:101EB00045D08D420C4650D0684FEB1B2F2B3ED89F
:101EC00001214FEA50194FEA890909F1604909F5E2
:101ED000614900F01F0301FA03F0D9F80030C9F896
:101EE000800000EA030BBFF35F8FEFF30581C9B2F7
:101EF000002934D0884505D0CDE9001001F024F93F
:101F0000DDE9001025F0010EDEF808C0644505D1BA
:101F100089E0D3F808C0644531D09E469EF906207A
:101F200002EB4203002A07EB8303F2DA644561D037
:101F3000BBF1000F20D0C9F88001C9F80000454B63
:101F40009B6843F82850BFF35F8F0023C6E88F3F9C
:101F50008AF3108803B0BDE8F08F1546EFE725F04F
:101F6000010EDEF808C06445D8D19EF906407346DC
:101F7000002C08DA154646E0C9F88000DFE793F93F
:101F80000640002C37DB04EB440C07EB8C0C9CF870
:101F90000710DCF80820D9719A609CF906206100CE
:101FA000002A9A713DDBBCF804E05FEA4E5E05D57D
:101FB0000EF5FF1E0EF5FF5E0EF11F0E6FF0070C03
:101FC0000A194FEA6E5E920002EB4E0208323A4462
:101FD000ACEB030C6244C2F34A026FEAC2426FEAFE
:101FE000D2429A801E4B21441A7807EB81011C7063
:101FF0008A719DE77346D9B9FF228EF806204BF609
:102000000152AEF80420164C4AF6AA2294F800C0F9
:102010001946C91B49414A43120D83F806C0227074
:1020200086E7104ADDE79EF906407346002CAADADF
:102030000D4A0E4CD21A083AC2F30A316FEA015126
:102040006FEA115144EA5202DA80998070E700BFCA
:10205000591E002000ED00E011010010481300207F
:10206000B227002001BDFFFF8213002000F8FFFF10
:10207000F0B5EFF30585EDB2EFF3108C72B626499B
:10208000D1E8CF2F0123002AFAD1C1E8423F002A2C
:10209000F6D1BFF35F8F214E40F0010EB4684AF6CF
:1020A000AA2354F825701E4A0446A41A64416343C7
:1020B0001B0D77455BB21BD092F906409C421CD0A9
:1020C00092F912409C4223D092F91E409C4221D0AA
:1020D00092F92A409C4208BF03240FD0114A0024E1
:1020E000157813708571C1E88F4F8CF31088F0BD9F
:1020F000B2680D4C42F82540F0E7002404EB44049C
:1021000002EB8402FF2494714BF601549480E5E7BE
:102110000124F3E70224F1E7591E002000ED00E05E
:1021200048130020B22700201101001010B5074C01
:1021300082B001460523002200940548FFF780FC89
:102140000028A8BFC0F1330002B010BD44B4001095
:10215000B6270020014B0B4403607047501E00203F
:1021600070B5104C104DAC420ED2FF26236863B1FF
:10217000FFF7CEFC01462046FFF7ECFFA680BFF339
:102180005F8F0834AC42F1D370BDFFF7C1FC01464C
:102190002046FFF7DFFF2671BFF35F8F0834AC42A4
:1021A000E4D370BD381900204819002010B504464A
:1021B000FFF7AEFC01462046FFF7CCFFFF2323715B
:1021C000BFF35F8F10BD00BF10B504460120FFF7BD
:1021D000ABFC034B03442360BFF35F8F10BD00BF14
:1021E000501E0020024B0B440360BFF35F8F70470B
:1021F000501E00200D4B1A68EFF3108172B6D2E822
:10220000CFCF0120BCF1000FF9D1C2E84C0FBCF1D7
:10221000000FF4D1BFF35F8F00221B68C3E88F2F3C
:1022200081F3108840BF0020002170475427002010
:102230002DE9F04F2DED028B85B0EFF30583DBB276
:10224000103B9A0818BF01224FF0010103F0030B65
:1022500018BFAF4DAF4B08BFAF4D0BEB820253F829
:10226000226001FA0BF205F541539FEDA78B019215
:102270005A602FE0B3881C0440F19380B379002B9F
:1022800040F0DD80B6F90820002AC0F21E81736993
:1022900002EB420203EBC203D3E90247B7F1FF3F6F
:1022A00008BFB4F1FF3F0ED005EB8B01AB6A0A69A2
:1022B000D21AE31A934205D301232A6A03FA0BF3D5
:1022C000134200D10C61284600F018FCA042B9412D
:1022D000C0F2FB80B6F90830019A002B0093EA6344
:1022E000C8DBD6F8148003EB4309284608EBC9077E
:1022F000D7E9024A00F002FCA04271EB0A01B9DB07
:10230000BAF1000FC0F2C380D7E90431834A934287
:1023100000F0ED807A88B6F9080092B242EA0040F7
:10232000984702460B4652EA030100F0B080002BAA
:1023300080F2D180B4EB020E6AEB030A38F939302F
:10234000C7E902EA002B95DB716903EB430201EB5D
:10235000C202D2E90270BE457AEB000C4FEA43029A
:1023600088DBB4462CF8083F06E003EB430001EBA2
:10237000C0005A00D0E90270BE451A447AEB000052
:1023800001EBC20404DB31F93230A446002BECDA55
:1023900028F83930009BACF80030B3881C043FF5B6
:1023A0006DAF3369EFF3108272B6D3E8CF0F01211E
:1023B0000028FAD1C3E8401F0028F6D1BFF35F8F91
:1023C0004FF6FF74B0880023316900B2B480C1E8D1
:1023D0008F3F82F310889842FFF650AF0746A94618
:1023E000746906F1080807EB470E04EBCE03D3E946
:1023F0000250B6F90830C446002B13DBB2460097F2
:1024000004E034F936309446002B09DB03EB430635
:1024100004EBC602D2E90271BD4270EB0101F0DAB1
:102420005646009FACF8007034F93E7024F83E30F8
:10243000002FD8DAB3794D46002B3FF423AF0023A9
:10244000B371B6F9083006F10808581C3DD01A4699
:10245000776903E08046591C3FF416AF03EB430154
:1024600007EBC100B0F802C01C461CF4004F9E46AA
:1024700037F93130EED0944280ED028B05D0A8F8C8
:102480000030328927F8312034817246E3E738F88A
:10249000393033813369EFF3108272B6D3E8CF0F4E
:1024A00001210028FAD1C3E8401F0028F6D1BFF36C
:1024B0005F8F7388316928F83930009B738000235F
:1024C000C1E88F3F82F31088D4E640BF05B0BDEC71
:1024D000028BBDE8F08F2846CDE9022300F00EFB09
:1024E000029A039B10EB020E43EB010A26E7084613
:1024F0000B69029198470028C9D00299D1E90023BD
:1025000011E700BFAFF30080FFFFFFFFFFFFFFFFFA
:1025100000800B402027002000000B4031220010DB
:102520002DE9F84F364C25692DB1BDE8F84F0A2149
:102530003448FFF70FBEDFF8E4800321404600F087
:10254000CBFA0326C4F80C80FFF7E2FA4FF0504CA8
:102550002D4B267003442361DCF800300F2163709B
:10256000636961801D834FF00405A3F878504FF034
:102570000505A3F890504FF00605A3F8A8504FF0BA
:1025800007050E214FF6FF7208274FF00A0EA3F839
:10259000C0504FF001094FF00C0C4FF0020B4FF000
:1025A000090A0D204FF00B05A3F868111749A28006
:1025B000A3F808E1A160A3F848B0A3F8F0A0A3F83D
:1025C0002051A3F838C1A3F85001A3F83090A3F824
:1025D0006060A3F8D8701A800D4B3046C8F82070A0
:1025E0000C49DC60FFF726FB49463046FFF7E0FA6E
:1025F000094B0A211F640348BDE8F84FFFF7AABD45
:102600009013002054270020501E0020FFFF1000D0
:10261000202700203122001000200B4000000B403A
:102620000048704790130020F8B59DF820500446EC
:1026300017461E4635B900F069FA874266EB01017C
:1026400000295CDB2169EFF3108372B6D1E8CF0F6C
:1026500001220028FAD1C1E8402F0028F6D1BFF3AB
:102660005F8FB4F90220656902EB4201002A4FEA4C
:10267000C10C206905EBC10139DB35F80CE0A4F889
:1026800002E04FF0000EC0E88FEF83F31088488817
:10269000069B0130C0F30E00012838BF01200B61FA
:1026A000079B48804B61C1E9027640EA02402369FA
:1026B000EFF3108172B6D3E8CF7F0126002FFAD155
:1026C000C3E8476F002FF6D1BFF35F8FA38825F8CB
:1026D0000C30A2802369C3E88FEF81F310880122B8
:1026E000E368217803F501538A405A60F8BD00225F
:1026F000C0E88F2F83F310884FF0FF30F8BD2846D5
:10270000F8BD00BF0146F0B50069EFF3108772B65F
:10271000D0E8CF5F0124002DFAD1C0E8454F002D4D
:10272000F6D1BFF35F8FB1F902E04C690EEB4E0CAE
:10273000BEF1000F4FEACC05086904EBCC0C3CDB82
:10274000665B4E800026C0E88F6F87F31088BCF868
:102750000200CCE902230130C0F30E00012838BF8B
:102760000120059BACF80200CCF81030069B40EA33
:102770000E40CCF814300B69EFF3108272B6D3E838
:10278000CFCF0127BCF1000FF9D1C3E84C7FBCF1DA
:10279000000FF4D1BFF35F8F8B886353A1F804E07F
:1027A0000B69C3E88F6F82F310880122CB68097828
:1027B00003F501538A405A60F0BD0023C0E88F3F03
:1027C00087F310884FF0FF30F0BD00BF034640890B
:1027D000B0EB214F37DD58690A1402EB420210B505
:1027E00000EBC2001C69EFF3108C72B6D4E8CFEF97
:1027F0000122BEF1000FF9D1C4E84E2FBEF1000F47
:10280000F4D1BFF35F8F428889B292B28A4207D077
:1028100000221B69C3E88F2F8CF31088002010BDA5
:1028200042F4004242800121002218699971C0E8F7
:102830008F2F8CF310881C78DA68084602F5015354
:10284000A140596010BD0020704700BF407870471C
:102850002DE9F04182B004460E4600F057F94FF0E2
:10286000FF326FF00043241846EB0106A24273EBDF
:1028700006013CBF14461E46A51F46F1FF37AC4279
:1028800076EB07033CBF00252F4600F03FF9281ADE
:1028900067EB010C01287CF1000C06DA204631467A
:1028A00002B0BDE8F04100F03BB900F02FF98542DD
:1028B00067EB010100290ADB0021174B2A46009330
:1028C00016483B460191FFF71DFF0130E6D04FF05F
:1028D000000C134A1349536A9F4204D8906AA842D5
:1028E000DCD29F42DAD10B68EFF3108072B6D3E8E6
:1028F000CF8F5FF0010EB8F1000FF8D1C3E848EFB9
:10290000B8F1000FF3D1BFF35F8F0B68C3E88FCF2F
:1029100080F3108820BFDEE7F5210010901300201F
:1029200000000B40542700202DE9F04182B00646FC
:1029300000F0ECF84FF47A7304464FF0FF306FF07C
:102940000042E6FB0341A04272EB01033ABF04469A
:1029500015460D46A61F45F1FF37B44275EB070338
:102960003CBF0026374600F0D1F8301A67EB010172
:10297000012871F1000106DA2046294602B0BDE8BF
:10298000F04100F0CDB800F0C1F8864267EB0101DC
:1029900000290ADB0021174B3246009316483B46BC
:1029A0000191FFF7AFFE0130E6D04FF0000C134A63
:1029B0001349536A9F4204D8906AB042DCD29F42C6
:1029C000DAD10B68EFF3108072B6D3E8CF8F5FF0E7
:1029D000010EB8F1000FF8D1C3E848EFB8F1000FCD
:1029E000F3D1BFF35F8F0B68C3E88FCF80F31088FC
:1029F00020BFDEE7F52100109013002000000B40FF
:102A0000542700202DE9F04306460D4683B0EFF32E
:102A10000584E4B23CB12D4B5A6AAA421CD2002074
:102A200003B0BDE8F0832A4FD7F80C9097F80080E8
:102A3000484600F063F808F1040859F828301B1ADA
:102A4000301A65EB0101984271F1000110DB20BFE3
:102A50001E4B5A6AAA42E2D314BF012400249B6A87
:102A6000B34234BF204644F0010003B0BDE8F08318
:102A700000F04CF8864265EB0101002914DB154B90
:102A80003846CDE9003432462B46FFF73BFE011EA7
:102A90000ADD0E4B5A6AAA4216D39B6AB34211D37F
:102AA0000B48FFF793FEB6E7084B5C6AAC42B6D31F
:102AB000641B18BF01249B6AB34234BF204644F014
:102AC0000100ADE7AA42EBD120BFE9E700000B40CF
:102AD00090130020F521001010B4054B054C064A58
:102AE000A04214BF1846581C5DF8044BFEF77CBF8B
:102AF0008422002000800B4060B400100346416A2D
:102B00000A46986A596A8A42FAD17047034B596A51
:102B10000A46986A596A9142FAD1704700000B4000
:102B2000074A536A9942FCD8994207D1044B02E004
:102B30005A6A914202D19A6A9042F9D8704700BF0E
:102B400000000B4000EB400C4FEA8C0C0CF1804C69
:102B50000CF5803CF0B51646DCF80420051FB2F5F4
:102B6000803F38BF4FF48032EDB238BFCCF804203C
:102B7000012D2AD94FF40067254C0CF540521760FF
:102B800054F82020B2B9DCF80020012D82EA461268
:102B900002F0E0020CF5805632602AD94FF4006151
:102BA00044F820304FF480330CF500521160CCF81B
:102BB0000430F0BD6769B7FBF2FE0EF1010E0EEBBB
:102BC0004E0EBEF1030EFCD2DDE70129D2D1032463
:102BD0000CF540521460DCF80820D207FBD5DCF875
:102BE00000200B4C82EA461202F0E0020CF58056FF
:102BF00032600122DCF800504D4005F003053560DD
:102C000002FA01F1DCF808200A42FBD0C6E700BF57
:102C100088220020014B53F82000704788220020B2
:102C2000584B2DE9F0431C6C1746B4F5803F38BF74
:102C30004FF4803283B038BF1A64032280460E46B8
:102C4000514B504DDA636C6CE307FCD5EB6B4F4A8C
:102C500083F0200303F0E003D363EB6B494D83F073
:102C6000010303F00303D3636C6CA407FCD54FF49A
:102C700000624FF48039464B464CDA63464B42467D
:102C8000636101213346C5F840904448009700F045
:102C900057F94FF400616B6B07FB06F64B4538BFE5
:102CA000C5F83490384B2269B8FBF6F619633AB18F
:102CB0006369B3FBF2F3013303EB4303033BFDD240
:102CC0003049324A0B6B03F0E00313630B6B83F064
:102CD000020303F0030313638B6B5807FCD54FF417
:102CE00000654FF480332A4A15632D4A4B632261F5
:102CF0000A6C9A424FF0030238BF0B64224B214901
:102D0000DA634B6CDA07FCD5CB6B204A03F0E003A7
:102D1000D363CB6B1B4983F0010303F00303D3633D
:102D20004B6C9B07FCD54FF480334FF40065184A79
:102D30006661D5630B64CA6C9A4238BFCB644FF4AA
:102D40000061114BA26999643AB16369B3FBF2F374
:102D5000013303EB4303033BFDD24FF400604FF418
:102D60008031084A094D936C83F0400303F0E0037F
:102D7000AB64074B084DA5619864D16403B0BDE80E
:102D8000F08300BF0000014000300140001001400E
:102D90000020014088220020006CDC020000054079
:102DA000001BB7002DE9F04F4FF4A078994685B08D
:102DB000CDE902125F4CDFF884A154450AD908F12D
:102DC000FF38A4F53B54B8F10F0FA4F12004F4D15F
:102DD000002069E0072304F53722019403FB03F484
:102DE00002F5D872B2FBF4FE70454FF0010C4FF0C3
:102DF00002074FF003064FF004054FF005013FD0E6
:102E0000B3F1010E00F094800EFB03F4B2FBF4FB6F
:102E100058454CD019B301FB03F4B2FBF4FB584501
:102E20004FD0E5B105FB03F4B2FBF4FB584553D09A
:102E3000AEB106FB03F4B2FBF4FB584557D077B1B3
:102E400007FB03F4B2FBF4FB58455BD0BCF1000F69
:102E500005D00CFB03F4B2FBF4FB83455DD0734655
:102E600003FB03F4B2FBF4FE704501F1FF3105F101
:102E7000FF3506F1FF3607F1FF370CF1FF3CBFD1FC
:102E800004FB1024002CBBD19E464A46DDF808B056
:102E9000DDF80C900120284901FB08F1CBF8001067
:102EA000C9F80030C2F800E005B0BDE8F08F04FBBF
:102EB0001024002CAED14A46DDF808B0DDF80C90A5
:102EC000E8E704FB1024002CABD14A468E46DDF81F
:102ED00008B0DDF80C90DDE704FB1024002CA7D12E
:102EE0004A46AE46DDF808B0DDF80C90D2E704FBA8
:102EF0001024002CA3D14A46B646DDF808B0DDF810
:102F00000C90C7E704FB1024002C9FD14A46BE4614
:102F1000DDF808B0DDF80C90BCE704FB1024002CB1
:102F20009DD14A46E646DDF808B0DDF80C90B1E7E1
:102F3000019C44E750262F00001BB70050F80C00FE
:102F400070B4039D04682D0345EA03451B4B002C18
:102F5000B3FBF1F3B2FBF3F61FDB194A194B9042B6
:102F600014BF4FF480424FF40042174C1A6003F52F
:102F700080531A60A36832EA0303FBD1212200F5D3
:102F800040530433016086601A600268002AFCDA4C
:102F90000822C5601A6070BC7047036803F03F03E5
:102FA0008B42DAD18368C3F30B03B342D5D1C36834
:102FB00003F4EE23AB42D0D1EDE700BF001BB70016
:102FC00000800540002002400000024030B44FF075
:102FD00080441C4B1C60E0B11B4CA3F54053DC61EA
:102FE0001A4C40F0010044401C62596298624FF054
:102FF00080454FF0E061134B1548164C1D6084600E
:1030000019604AB930BC4FF00042A3F580531A60F2
:103010007047114BD861EAE74FF47A7303FB02F271
:10302000B2F1807F2ABF6FF07F4313461A464FF0FC
:1030300080410A4C08482360094B426030BC19604B
:10304000704700BF00B00D40D3C007B02D3FF84F10
:1030500000A00140F3FFFF0100800D40F426002096
:1030600000A00D40012300EB4000800000F18040F3
:1030700000F5841041600360704700BF002370B505
:10308000DB8A04460D46002242E800F2520254BF99
:103090001021042144F25220984786462B462246AE
:1030A000F446BDE870400A214FF48170604700BFCC
:1030B0000023DB8A002242E800F2520201D41021F0
:1030C00018470421184700BF08B503460846191ED3
:1030D00002DB1AB140F03000FFF7D0FF40F02000D3
:1030E000FAE700BF034AD2F82838002BFBD0BFF321
:1030F0005F8F704700000E400021044B044ABFF36D
:103100005F8F43F8041B9342F9D170470C080E40BF
:103110002C080E4010B44FF48D704FF42A64064A08
:10312000064B07491460D06019605368002BFCDA25
:103130005DF8044B704700BF0080044000A00440CD
:1031400000B0FA00704700BF08B50148FEF718FC50
:1031500084B4001038B5054C054DAC4204D254F887
:10316000043B9847AC42FAD338BD00BFD8B000103A
:1031700018B1001038B5054C054DAC4204D254F8D6
:10318000043B9847AC42FAD338BD00BF04B10010ED
:1031900018B1001010B40748074C084B084A0949F9
:1031A00004601A608B6832EA0303FBD15DF8044BBC
:1031B000704700BF002002407F3BEFEF003002402D
:1031C000F6FFF30300000240044BDB6CB3F5004F45
:1031D00003D14FF48022024BDA6470470000115093
:1031E000002011504FF0E022044BD2F8881D0B4311
:1031F000C2F8883D10EE3004704700BF0303300072
:103200006FF06041044B054A19609368DB4333F06B
:103210006043FAD1704700BF003002400000024016
:1032200010B545F25320FFF743FFBDE810400346B9
:103230000420184710B545F25320FFF739FFBDE8C9
:103240001040034601201847FEF786BC1449154B71
:1032500070B55C1AA610442E324628BF4422124D87
:103260009200284607F00EFDB4F5867F13D80F4A6A
:10327000C6F1440012D02B19410803EBC101C3E988
:10328000002208338B42FAD1C30704D520F0010095
:10329000304445F82020064B9D6070BD4320F8E780
:1032A00000000010100100100000002011010010AB
:1032B00000ED00E0002370B52B4C82B0C4F88430E0
:1032C000FFF728FF0122294BDA63636C012BFCD145
:1032D0000321264A244B11639C6B012CFCD102264E
:1032E000052521460523224A22480096FFF728FE9D
:1032F00021462B46204A21480095FFF721FE002257
:10330000042031461E4BFFF71DFC214628460022B3
:103310001C4BFFF717FC0022082011461A4BFFF741
:1033200011FC002209201146174BFFF70BFC00226D
:1033300006201146134BFFF705FC0022114B072016
:103340001146FFF7FFFB0420FFF764FC00240F4B3E
:10335000A3FB0035AD0CE0B229460134FFF782FE35
:10336000062CF8D102B070BD0000014000300140D1
:10337000002F685900000540008C864700800540FA
:10338000001BB70080D1F008006CDC0283DE1B4319
:1033900086B003B451FC0804CDE9020151FC0904D4
:1033A000CDE9040151EC0A04CDE9060103BCF04764
:1033B000BDE800504EEC00C4BDE800504EEC01C426
:1033C000BDE800504EEC02C400BD000000B5FFF7A0
:1033D000DFFF02E010FE30F4F8D441EC100443ECBF
:1033E000112400EE010410EE010480EE200451ECE3
:1033F0001004704700B5FFF7CBFF02E010FE30F479
:10340000F8D441EC100443EC112400EE010410EE5A
:10341000210480EE200451EC3004704700B5FFF722
:10342000B7FF02E010FE30F4F8D410B541EC100400
:1034300043EC112451EC040453EC0524A0FB024C92
:103440005FF0000EE0FB03CEE1FB02CE4CEC20442B
:103450000024E1FB03E444EC30E480EE200451EC72
:103460005004BDE81040704700B5FFF791FF02E03F
:1034700010FE30F4F8D441EC100443EC112451EC6C
:103480002104A0FB01126FEA820252FB100052FBE2
:1034900012F252FB1000A0EBD07C53EC04245CFB36
:1034A00013F153EC1524A1FB022001FB030053ECA4
:1034B0004424A2EB000050FB1CF24FEA111312EB64
:1034C000017043EBE27140EA515020EA915020F044
:1034D000070053EC7524A0FB023C53EC752400FB61
:1034E00003CC01FB02CC53EC0424ACEB824C40EA4D
:1034F0005C70A0F1010041EC400480EE200451EC2E
:103500007004704700B5FFF743FF02E010FE30F48F
:10351000F8D440EC700400EE010410EE210480EEBB
:10352000200451EC3004704700B5FFF731FF02E092
:1035300010FE30F4F8D440EC600400EE010410EE0C
:10354000210480EE200451EC3004704700B5FFF7F1
:103550001FFF02E010FE30F4F8D441EC800400EECE
:10356000010410EE010480EE400410EE13047047D5
:1035700000B5FFF70DFF02E010FE30F4F8D441EC87
:10358000800400EE010410EE010480EE400410EE11
:103590003304704700B5FFF7FBFE02E010FE30F485
:1035A000F8D441EC100443EC112400EE010410EEB9
:1035B0003004C0F30070704700B5FFF7E9FE02E089
:1035C00010FE30F4F8D443EC102441EC110400EE6A
:1035D000010410EE30F48CBF01200020704700BFC2
:1035E00000B5FFF7D5FE02E010FE30F4F8D443EC4E
:1035F000102441EC110400EE010410EE30F42CBF55
:1036000001200020704700BF00B5FFF7C1FE02E0B7
:1036100010FE30F4F8D441EC100443EC112400EE19
:10362000010410EE30F42CBF01200020704700BFD1
:1036300000B5FFF7ADFE02E010FE30F4F8D441EC27
:10364000100443EC112400EE010410EE30F48CBFA2
:1036500001200020704700BF38B50446094807F034
:103660001BFD204606F000FF0546064807F010FD4A
:103670002DB1054B2C449C4201D8284638BD034847
:10368000FEF77EF9381900200000082090B40010E1
:1036900070B504460E460B4807F0FEFC3146204646
:1036A00006F0A2FE0546074807F0F2FC06FB04F40C
:1036B0002DB1054B2C449C4201D8284670BD0348CF
:1036C000FEF75EF9381900200000082090B40010C1
:1036D00010B50446054807F0DFFC204606F0CCFE96
:1036E000BDE81040014807F0D3BC00BF38190020E6
:1036F000704700BF2DE9F04F83B09946DDE90DAB6F
:103700000F9B884611469A07074616D1DA453AD2EA
:103710000C460D46ABEB0A060E4422464B4641468C
:1037200020200134B847B442F7D12946BAF1000F3E
:1037300008D1204603B0BDE8F08F0C46BAF1000F67
:1037400010D00E4655460C9B2E449A440191721B94
:103750004B46013D41461AF8010D3446B847002D4D
:10376000F5D101990F9B9B07E3D5651AAB45E0D9CD
:1037700022464B46414620200135B8475D4504F1BD
:103780000104F5D3D5E70C46BAF1000FD9D1D0E743
:103790002DE9F04F0F9FDDF8248017F0020F0A9CEF
:1037A0009DF82CA00E9DDDE90C9644D1F5BBB442EA
:1037B00041D207F0010B04F1FF3C4FF0300EC4443E
:1037C00004E00134A6420CF801EF01D9202CF8D115
:1037D000BBF1000F00F08880A5422CD904F1FF3C1A
:1037E0004FF0300EC44404E00134AC420CF801EF59
:1037F00021D0202CF8D117F0100F0ED017F4806FC5
:1038000054D1A64263D0A54261D0B9F1100F50D077
:10381000B9F1020F56D0202C29D12024CDE90B5725
:10382000CDE90984BDE8F04FFFF764BF17F0010B45
:1038300034D1B442BFD317F0100F1ED017F4806FED
:10384000E3D1002CDDD1B9F1100F63D0B9F1020F33
:1038500077D0302488F800400124BAF1000F11D14C
:103860007E0748D52B2608F804600134D6E72646A3
:1038700001344FF0300C08F806C0202CCDD0BAF13E
:10388000000FEDD02D2608F804600134CDE90B5768
:10389000CDE90984BDE8F04FFFF72CBFBAF1000F66
:1038A00030D0B44205F1FF3585D395E7B9F1100F5B
:1038B000B3D1BE063BD5202CAFD0582608F8046003
:1038C0000134A8E7202CA8D02646013407E0661E64
:1038D000B9D0B9F1100F36D0B9F1020FC9D14FF0FC
:1038E000620C08F806C096E717F0100FC5D017F461
:1038F000806F86D089E73E0790D5202608F80460BF
:1039000001348BE717F00C0F00D0013DB442FFF4F7
:1039100052AF61E7BC0612D4782488F80040302406
:1039200088F801400224BAF1000F99D0AAE7202CB0
:103930003FF473AF782608F8046001346BE758242D
:10394000EBE76224E9E717F0200FA4F1020C04D0A2
:103950004FF0580E08F80CE08BE74FF0780E08F89F
:103960000CE086E700B9704701F084BB10B1D1E9E3
:1039700000311847704700BF2DE9F04F97B09DED1B
:10398000207BDDE9225B0746884651EC170B249C1F
:1039900099460C920B4602468DED047B0794FFF787
:1039A000FDFD002840F0F481DDE904014FF0FF3215
:1039B0006FF48013FFF704FE002840F01B81DDE95F
:1039C00004014FF0FF32AC4BFFF736FE002840F009
:1039D000EE80DDE90401A4A3D3E90023FFF72CFE68
:1039E000002840F0D380DDE90401A1A3D3E900233E
:1039F000FFF7E6FD002840F0C980DDE90401002260
:103A00000023FFF7DDFD002840F0E88023460D90FD
:103A100013F4806F08BF062530212B460EAAA5F1AE
:103A2000200605E0013BB34202F8011B00F0938140
:103A3000092BF7D81E46ED1ADDE90401FFF78AFDD0
:103A40008E4B044603EBC60393ED007B8DED087BA4
:103A5000FFF75CFD02460B46DDE90401FFF7CEFCF3
:103A6000DDE90823FFF7DEFC02460B46CDE90A2319
:103A7000FFF782FD8246FFF75BFD02460B46DDE95C
:103A80000A01FFF7BBFC02460B46CDE90A230022E0
:103A90007B4BFFF7D1FD002800F0FE800AF1010A00
:103AA0005046FFF745FD02460B46DDE90801FFF7EA
:103AB0009BFD10B14FF0000A0134002E00F0FD8094
:103AC000681E0EABDFF8CCC118440FE0ACFB0A2136
:103AD000C90801EB8102AAEB42023032BAF1090FA8
:103AE00000F8012F40F21C818A461D46202D05F169
:103AF000010306F1FF36E9D12025691E0EAB6148AE
:103B0000194410E080FB0462C3EBA20303EB8302C1
:103B1000A4EB420404F1300201351C4601F8012FE8
:103B2000002B00F0EB80202D4FEAE473EAD1079BD5
:103B300003F00303012B18D1BBF1000F15D00D9B2F
:103B4000002B00F00A810BF1FF3BBBF1200F0CD9D9
:103B50006B1E0EA930220B4405E001355D4503F8CC
:103B6000012F80F0D180202DF7D1079B0EACCDE93D
:103B700002B341464B4638460C9A01950094FFF734
:103B8000B9FD8246504617B0BDE8F08F079B9DED0A
:103B9000047BCDE923B341464B4638460C9A8DED64
:103BA000207B229517B0BDE8F04F00F045B96107C2
:103BB00023464CBF042303234146219338464B46FA
:103BC000079A48BF304CCDE922B258BF2F4C0C9A0F
:103BD000209417B0BDE8F04FFFF78CBDDDE904235A
:103BE00000200021FFF70AFC0123CDE904010D9319
:103BF00023460DE723469C0740F0AA80BBF1040F43
:103C000040F2A6800C9B1D461C1F04EB0B0A2A46A3
:103C10004B46414620200135B847AA45F7D15546C5
:103C20001B4C261F14F8010D2A464B464146B84747
:103C3000B44205F10105F5D1079B0AF1040A980782
:103C4000A0D50C9CAAEB04039B459BD952464B463E
:103C5000414620200AF1010AB847AAEB04035B455C
:103C6000F4D38FE7AFF300800000000065CDCD41B5
:103C70000000000065CDCDC1FFFFEF7FE0B6001072
:103C80000000E03F67666666E0B40010E8B400102C
:103C9000F4B40010CDCCCCCC0022DDE90A01634B9A
:103CA000FFF78EFC00287FF408AFBAF1000F6AD14D
:103CB0000AF1010A002E7FF403AF2046FFF726FC2D
:103CC00002460B46DDE90401FFF798FB02460B466E
:103CD000CDE904230022554BFFF772FC00287FF446
:103CE0000CAFDDE904010022504BFFF7A5FC0028D2
:103CF0007FF403AF013424F00104FEE6079B03F0D8
:103D00000303012B00F08280202D3FF42EAF0D9B8A
:103D10007BB32D220DEB050383F83820013524E712
:103D2000202B3FF4E9AE0EAA15441E44302204E0D5
:103D3000202B05F8012F3FF4DFAE9E4203F1010373
:103D4000F6D12E220DEB060383F83820751CD4E63D
:103D5000DDF830A063E720256EE6079B13F00C0F1B
:103D600050D00BF1FF3BAB453FF6F2AE202D3FF4B8
:103D7000FCAE079B5A0701D52B22CBE71B077FF52B
:103D8000F4AE2022C6E71AF0010F3FF496AE8FE79B
:103D9000A60734D1BBF1030F31D90C9B1D46DC1EA5
:103DA00004EB0B0A2A464B46414620200135B84712
:103DB0005545F7D155461E4CE61E14F8010D2A460E
:103DC0004B464146B847A64205F10105F5D1079B90
:103DD0000AF1030A9D077FF5D5AE0C9CAAEB0403FC
:103DE0009B457FF6CFAE52464B46414620200AF116
:103DF000010AB847AAEB04039B45F4D8C2E6DDF8F4
:103E000030A0D7E7AB453FF6A3AEAEE6BBF1000F5F
:103E10003FF47AAF0D9B002B9FD00BF1FF3B5D452C
:103E2000FFF496AE202D7FF474AF9EE60000E03FD5
:103E3000EFB40010000000002DE9F04F9FB02A9E63
:103E4000DDE92845074693460891099322462B460B
:103E5000204629460E96DDE92BA6FFF79FFB00289A
:103E600040F0BE80204629464FF0FF32784BFFF7E6
:103E7000E3FB002840F0B480204629464FF0FF3293
:103E80006FF48013FFF79CFB002840F0A9802046C8
:103E9000294600220023FFF793FB002840F0D5813C
:103EA000CDE90A45DDE90A239046994606F4006209
:103EB00016F480630F92139340F0A18058EA09032F
:103EC00040F0CA80002A40F0E38106230E9316F0EA
:103ED0000202109240F0D4815346042B38BF0423D1
:103EE0000C920422043B12920F9320462946002292
:103EF0000023FFF765FB002840F0F3819DED0A7B6E
:103F00000F9B5A4603930E9B8DED007B029326F484
:103F1000006304933846099B0899FFF72DFD02467C
:103F200016F0200F099B08990CBF6520452002F16F
:103F30000108B8470C9A129B16AC5D1E82EAE27328
:103F4000A3EBE273D10F002622469946DFF804C1A5
:103F500001E0202E10D0CE46ACFB0930C00800EBAB
:103F60008003A9EB43033033BEF1090F814606F10C
:103F7000010602F8013BECD80523002006930A2332
:103F800005950094099D089C4246CDE90330CDE992
:103F900001612B4621463846FFF7FAFB109A80460E
:103FA000D2B1A0EB0B06B24516D90BEB06022B469D
:103FB000214620200136B847B245F6D80BF1FF3331
:103FC0005344CBF10102A3EB08034244924538BFAE
:103FD000002308F10108984440461FB0BDE8F08F67
:103FE0005A463846CDE92845CDE92BA60E9C099BBB
:103FF00008992A941FB0BDE8F04FFFF7BDBC58EAFE
:1040000009032BD1002A3FF462AF00230C930E9BCF
:104010000C9A934200F3B9814FF0000820462946DC
:1040200000220023FFF7CCFA002840F013819DED19
:104030000A7B26F4006646F480668DED287B5A469E
:104040003846CDE92A8A099B08992C96D2E700BF09
:10405000FFFFEF7FCDCCCCCC06230E93C9F30A50E3
:10406000A0F2FF30FFF752FAC1A3D3E90023FFF714
:10407000D9F9C1A3D3E90023FFF7ACF9C9F31309B8
:10408000CDE90C0149F07F5140460022B24B41F48A
:104090004011FFF7B3F9A4A3D3E90023FFF7C2F956
:1040A00002460B46DDE90C01FFF794F9FFF752FADF
:1040B0000C90FFF72BFA9EA3D3E900238046894694
:1040C000FFF7B0F90022A54BFFF784F9FFF742FA9A
:1040D000034649464046129397A3D3E90023FFF7CE
:1040E000A1F9804612988946FFF710FA94A3D3E904
:1040F0000023FFF797F902460B4640464946FFF773
:104100007DF902460B4680468946FFF78BF9424609
:104110004B46CDE9100140464946FFF75BF90022C6
:10412000CDE91401DDE910018D4BFFF7A1F9002263
:104130008C4BFFF74FF902460B46DDE91001FFF704
:1041400097F90022884BFFF745F902460B46DDE957
:104150001001FFF78DF942464B4680468946002004
:104160004FF08041FFF74AF902460B464046494668
:10417000FFF730F902460B46DDE91401FFF778F945
:1041800000227A4BFFF726F9129B002203F2FF3C34
:104190004FEA0C53FFF746F980468946DDE90A01EC
:1041A00042464B46FFF70CFA50B10C9B4046013B90
:1041B00049460C9300226B4BFFF75AF9804689461B
:1041C0000C9A43466332C62A06F002021092494610
:1041D0000F9A2CD8002A5ED0042212920B433FF48F
:1041E00016AFDDE90A0158A3D3E90023FFF710FA5F
:1041F00048B1DDE90A0156A3D3E90023FFF7E0F94E
:1042000000287FF404AF0E9B002B50D0139A002A95
:104210007DD0013B0E93129B9A4505D9109B002B34
:1042200000F0AE800223109300230F9344E022BBE2
:10423000BAF1050F4FD906F00203002B49D105232F
:104240001293AAF105030F933AE005F100430A9493
:104250000B9327E626F4006646F4806638462C96D3
:10426000DDE90A67344607F100455A46CDE92A8A56
:10427000CDE92845099B0899BCE605221292ADE7D5
:1042800000230222CDE90F3204220C9312922CE675
:104290004FF00508C2E6BAF1040F1FD9109B002B9E
:1042A00078D104231293AAF104030F9304E0129B24
:1042B0009A4531D80E9B0F930C9B002B3FF415AE03
:1042C000DDE90A0142464B46FFF7D2F8CDE90A0183
:1042D0000BE60223109305231293F1E704231293B4
:1042E000EAE7DDE90A45A0460F9B05F10049039383
:1042F0000E9B5A46029326F4006304933846CDE998
:104300000089099B0899FFF737FB024608E6129BD4
:104310009A4544D80F92CFE7109B8BB30E9B0F9317
:1043200002231093C8E700BF61436F63A787D23FA2
:1043300071A379094F930A401655B5BBB16B024082
:10434000EF39FAFE422EE63F2D431CEBE2361A3FD0
:104350000000000080842E410000F83F0000E03F94
:1043600000002C4000002440000018400000F03FF6
:10437000FB799F501344D33FB3C8608B288AC63F54
:10438000129BAAEB03030F9396E7A3EB020808F135
:10439000FF3843E604231293022310938CE7109B0B
:1043A000002BEDD002230F92109385E72DE9F04FFB
:1043B0009BB0249C954D0A94954CB1F1000A18BF0E
:1043C000834625601878934C914608BFA34609930D
:1043D000002800F093824FF000080AE042464B4666
:1043E000514608F10108D847099B1878002800F0C9
:1043F000CE80099B252803F101030993EED11C46C9
:104400000023224612F8010BA0F1200110290AD83E
:10441000DFE801F04009093C0909090909090938DF
:10442000093409093000A0F130010929099440F24A
:104430008A802A2800F0F08000252E2800F096803F
:104440000026A0F1680112292DD8DFE811F04901FA
:104450002C0043012C0038012C002C002C002C00D7
:104460002C002C002C0027002C002C002C002C00F1
:104470002C002700144643F00103C2E7144643F022
:104480000203BEE7144643F00403BAE7144643F0C0
:104490001003B6E7144643F00803B2E709994878D9
:1044A00043F480730132672809927ED8242840F2B1
:1044B000C180A0F12502422A00F2BC80DFE812F0A0
:1044C0005001BA00BA00BA00BA00BA00BA00BA0085
:1044D000BA00BA00BA00BA00BA00BA00BA00BA000C
:1044E000BA00BA00BA00BA00BA00BA00BA00BA00FC
:1044F000BA00BA00BA00BA00BA00BA00BA00BA00EC
:10450000190137011901BA00BA00BA00BA00BA009D
:10451000BA00BA00BA00BA00BA00BA00BA00BA00CB
:10452000BA00BA00BA00BC01BA00BA00BA00BA00B8
:10453000BA00BA00BA00BA00BA00BC015801BC0106
:10454000190137011901002500E0013205EB85054D
:1045500000EB45051078303DA0F130010929F4D970
:104560002E28099202F101027FF46AAF099943F4FF
:10457000806348781146A0F13006092E40F221816F
:104580002A2800F02F8109920026013259E744467B
:10459000C14501D809F1FF384B464246514600203B
:1045A000D84720461BB0BDE8F08FA0F16902D2B217
:1045B0000F2A3FD8012149F241079140394040F08C
:1045C000F3800A2A3DD0072A34D10A9D55F8042BDE
:1045D000002A00F0138143F0210012AB1F460B9319
:1045E00003E0202900F014811A4602F00F0423464C
:1045F000092C94BF303337330F2A07F8013B01F100
:1046000001014FEA1213ECD802E100BFAD430010E4
:10461000F0260020F13600100A99099851F8045B41
:104620004078002DCDE90921BCBF43F002036D4263
:10463000013202E742464B46514608F10108D8478D
:10464000D2E60A99002E51F8047B18BF324638781A
:1046500008BF4FF0FF32002800F07B83BC18A4464F
:104660003A4604E012F8014F002C00F03F819445D7
:10467000F8D16446E41B5A0540F12281B44228BFB8
:10468000344613F0020300F088820223CDE90A5178
:1046900042461D46464408E04B465146D84717F867
:1046A000010F08F1010810B142464645F4D12B46EE
:1046B0000B990A9D002B40F041810A9194E60999DB
:1046C00048786C287FF4ECAE0A46887843F440734F
:1046D0000332E8E6099943F4007348780132E2E6D0
:1046E00009994878682800F0038143F0800301327B
:1046F000D9E6672800F0D980472800F0DC804528FB
:1047000000F0DB80CDE903530A9B0296073323F0C8
:1047100007031C464246F4E802674B46514658469A
:10472000CDE900670A94FFF787FB80465CE64628E0
:1047300008BF43F02003CDE903530A9B02960733D9
:1047400023F007031C464246F4E802674B465146F5
:104750005846CDE900670A94FFF70EF9804643E614
:1047600042464B465146252008F10108D8473BE612
:104770000A9A990702F1040408F1010640F1C68083
:1047800010784B4642465146D847012D88BFA84471
:1047900040F2BD8132464B46514620200136D84773
:1047A0004645F7D10A941FE66F2800F0818040F259
:1047B0004882782800F090810A2723F01003BC4635
:1047C00041E0002606EB860600EB4600A0F130062D
:1047D00011F8010FA0F13002092AF3D90A46099114
:1047E00001322EE6DDE9092151F8046B907802329E
:1047F00009920A91013226EAE67622E623F01000B9
:1048000013F4806240F021003FF4E7AE12AB0B934B
:104810000B9B06900093082310200593002342462B
:10482000CDE9023001914B46514658460496FEF7B9
:10483000AFFF0A958046D7E5582862D0622840F03D
:104840008F800227BC4613F4806000F0DD8023F0E7
:104850000D0313F4007240F081810A990F1D13F4C7
:10486000807140F037825C060A9A40F13B811278F1
:10487000002A40F04E8123F01003002800F0498107
:10488000114612AA0B92CDE90553CDE903C6019159
:104890000B9B4246009300235146029358464B46D9
:1048A000FEF776FF0A9780469EE543F4006329E70A
:1048B0000827BC46C7E743F4006343F0200321E721
:1048C00013F0020300F08E8102230A951E460D4666
:1048D00042464B465146D84717F8010F08F10108E8
:1048E0000028F5D1294633460A9DE3E6D41BC2E6EB
:1048F0000A46887843F0C0030332D4E50446804674
:1049000046E6102743F02003BC469CE7012D40F209
:10491000F880464608F1FF372F4432464B46514651
:1049200020200136D847BE42F7D10A9B324618787C
:1049300051464B46D847A8440A9455E54646A542F9
:104940007FF6BBAEA844A8EB04080C4632464B46A3
:10495000514620200136D8474645F7D12146ACE6DE
:1049600013F4806200F0BB804FF4806223F0110CDE
:104970001CF400770A9B4AD11CF4807003F10404F4
:1049800040F034811CF0400F40F0A3801CF0800FF9
:1049900000F0D381B3F9001081EAE177A7EBE1776A
:1049A000BFB2CB0F002900F056813A4612A90F463C
:1049B000DFF8D8E30B910A930C9501E020280FD083
:1049C0001546AEFB0213DB0803EB8301A2EB4101AA
:1049D0003031092D1A4600F1010007F8011BEDD80E
:1049E0000A9B0C9DCDE9055CCDE9010304960B9B68
:1049F000424600930A235146039358464B46FEF71E
:104A0000C7FE0A948046EFE423F00C0321E7073346
:104A100023F00703194608465B6850F8081BDF0FB0
:104A20000A9051EA030062D1002A40F09F811346A8
:104A3000114612AACDE90C7500201546CDE90E6885
:104A4000DFF848E30B9201E020282DD05A1842F1FC
:104A50000002AEFB027828F0030707EB9807D21B91
:104A60001E469B1A61F100070C464FF0CC3101FB4A
:104A700003F10EFB0711A3FB0E731944052307F086
:104A80000108A8FB03389B180A2E03F130034FEAF4
:104A9000570774F1000405F8013B00F1010047EAF3
:104AA000C1734FEA5101CFD2DDE90C75DDE90E6823
:104AB0000B9B424600930A23CDE9055CCDE9010733
:104AC000049603934B4651465846FEF761FE8046D6
:104AD0008AE419780F4664E71027BC46B3E623F052
:104AE000100C45E71C064CBF12881268C0E60A4647
:104AF000191E01DB13469CE75242134661EB41014C
:104B000097E713465146187842464B46D847B04679
:104B100048E613F0200F14BF4120612012ACA646D6
:104B20000B940A93A0F10A040C9502E0202912D0FC
:104B30002A46B2FBFCF50CFB1520C3B2092803F191
:104B400030008ABF1B19C3B2DBB262450EF8013BCD
:104B500001F10101EAD20A9B0C9D94E60A9A073200
:104B600022F00702516852F8084B8E460A9254EA26
:104B7000010276D123F01003002872D000221146E2
:104B800012AA0B92CDE905530B9B424600930023DA
:104B9000CDE903C60191029394E7A54298BF013481
:104BA0007FF674AD4FF48063CDE90A7505EB08021A
:104BB0001F460D46141B42464B465146202008F125
:104BC0000108D847A045F6D13B460A9F29463878C8
:104BD0000B9D6C1C00283FF470AD002B3FF475AEAC
:104BE000002353E5A542DFD801346EE61968CB0FE8
:104BF000002900F0A88081EAE172A2EBE17212A91B
:104C00000846DFF888E10B910A930C9501E0202F0C
:104C10000FD01546AEFB0213DB0803EB8301A2EBBA
:104C200041013031092D1A4607F1010700F8011B37
:104C3000EDD80A9B0C9DCDE9055CCDE90173049686
:104C4000D5E6692823F0100C40F08C8013F48062C4
:104C50003FF48EAE88E6002A3FF4A8AE12AA0B926B
:104C6000C0E613F0200F14BF41226122002012A9D8
:104C70000A3ACDE90E68CDE90C35CDF844B00646C8
:104C80008846754693460B91CDF840C003E0202E30
:104C900017D004460D4629463A460023204606F022
:104CA000F3F9D2B2092A02F1300388BF02EB0B03F9
:104CB000BC42DBB275F1000508F8013B06F10106C4
:104CC000E5D23146DDE90C35DDE910CBDDF83C807D
:104CD0000E9E57E70A99096851B923F0100338B1BD
:104CE00012A90B91CDE90553CDE903C60192CFE599
:104CF00013F0200F14BF4120612012ACA6460B9484
:104D00000A93A0F10A040C9502E0202A12D0294649
:104D1000B1FBFCF50CFB1510C3B2092803F1300000
:104D20008ABF1B19C3B2DBB261450EF8013B02F129
:104D30000102EAD20A9B0C9DD4E7196881EAE17767
:104D4000A7EBE1772DE6002A3FF459AF12AA0B92A8
:104D500071E713F480640DD013F0020412D00446FE
:104D60004646ECE50A276346BC466CE512AB0020DC
:104D70000B939DE613F002037FF4E0AD002D7FF46A
:104D800013AF9AE4002D7FF40DAF96E4CDCCCCCCDC
:104D900070B594461E4605460C4684B04FF0FF326F
:104DA000634602A900960348CDE90254FFF7FEFAD4
:104DB00004B070BD6D39001010B5094B84B01C688B
:104DC0004CB1034600914FF0FF3203A90548A047BC
:104DD000012004B010BD00F08FF9204604B010BDD2
:104DE000F02600206539001000BEFDE7074A0346A3
:104DF000106838B1064903448B428CBF4FF0FF3036
:104E000013607047034908461160F3E7EC22002065
:104E100000000820B827002008B5FFF7E5FF00BF15
:104E200038B5064C064DFEF795F9AC4204D254F85D
:104E3000043B9847AC42FAD338BD00BF18B100100C
:104E400020B1001003680846114618472DE9F041CB
:104E50001546427D07468846002A46D0002D1DDDB6
:104E60000B780A2B23D0012D4FF0000C18D04646AA
:104E7000012416F8012F21460A2A04F1010422D048
:104E8000A542F6D165450BDC08EB050313F8013CA0
:104E9000A3F10D03B3FA83F35B093B75BDE8F08121
:104EA0003B68A5EB0C0108EB0C009847ECE7037D91
:104EB000002BD8D1036802210F489847012DE3D079
:104EC0004FF0010CD3E716F8013C0D2BD8D08C45E0
:104ED00008EB0C00A1EB0C0101DA3B6898470221BA
:104EE00005483B689847A446CAE7294640463B68C0
:104EF000BDE8F041184700BF30B700100B682DE93E
:104F0000F041802B0D46064605D05A1C2B442A60E2
:104F10001E71BDE8F0810F4B1C68A4B10E4F01F16A
:104F2000040801E0246974B12368002BFAD03B68BF
:104F30000BB1A342F6D1204641462A68FFF786FF0F
:104F40002469002CF0D1002301222B442A601E7119
:104F5000BDE8F081D8220020E42200202DE9F047AE
:104F600082B00D4691461C460646FDF7CFFD4FF038
:104F7000FF3C6FF000472E4A821841F10003944530
:104F800077EB03013CBF62463B462A4806F08CF8AB
:104F90006B1C804640D00CB3274F284B1C68B4B123
:104FA000B9F1000F1CD1DFF89C9001E0246974B1C5
:104FB0002368002BFAD0D9F800300BB19C42F5D110
:104FC00020462A463146B8472469002CF0D1B8F172
:104FD000000F26D1284602B0BDE8F087184FDCE765
:104FE0004FF00A0ADFF85C9002E02469002CEED052
:104FF0002368002BF9D0D9F800300BB1A342F4D1CB
:105000002A4631462046B847012220460DF10701C5
:105010008DF807A0B847E8E7304605F0A9FE054639
:10502000B9E7044806F034F8284602B0BDE8F08736
:1050300040420F00401900204D4E0010D8220020A1
:10504000454E0010E4220020084A136823B90AE004
:1050500003F110021B6933B18342F9D129B91869F0
:1050600010601961704701B110607047D8220020AC
:1050700000F0DEBAF0B583B006468DF80700FDF704
:1050800045FD4FF0FF356FF00044174A821841F19B
:105090000003954274EB03013CBF23462A461348A4
:1050A00006F002F8124B07461C689CB1114D01E056
:1050B00024697CB12368002BFAD02B680BB19C4289
:1050C000F6D1204601220DF10701FFF7BFFE24694A
:1050D000002CEFD117B9304603B0F0BD034805F0FE
:1050E000D7FF304603B0F0BD40420F00401900200A
:1050F000D8220020E422002038B5044605F038FE0E
:10510000012305461A4620462946FFF727FF084B8C
:105110001C682CB163682BB198472469002CF9D125
:10512000284638BD2469002CF4D1284638BD00BF7C
:10513000D82200202DE9F041A2B004460D46FDF72B
:10514000E5FC4FF0FF376FF00046264ADFF8A480F9
:10515000821841F10003974276EB03013CBF3A46C7
:105160003346214805F0A0FF00272B46224606467D
:1051700001A91E480197FFF70BFE019B0546D8F8D1
:105180000040C3B1002C2BD0194F01E0246974B149
:105190002368002BFAD03B680BB1A342F6D120461E
:1051A000019A02A9FFF752FE2469002CF0D10023D6
:1051B000D8F8004001932CB1636843B19847246943
:1051C000002CF9D12EB9284622B0BDE8F08124691F
:1051D000F1E7054805F05CFF284622B0BDE8F08104
:1051E0000194EFE740420F0040190020FD4E0010EF
:1051F000E4220020D82200200FB400B583B004A917
:1052000051F8040B0191FFF795FF03B05DF804EB33
:1052100004B07047704700BF0022014B1A707047FE
:10522000B32700204B79FF2B0BD1887948B9CB7974
:10523000012B07D1082A05D9034B8A7809201A7057
:1052400070470020704700BFB3270020012070473F
:10525000012901D00120704708B5104B91881B78B7
:10526000994201D0002008BD5378012B08D0022BB1
:10527000F8D1002164220846FDF7A8FE012008BDF0
:105280005188CB0548BF480AC1F3402258BF4FF0B0
:10529000FF3001F07F01FDF717FF00BFB3270020AB
:1052A00000487047FCB70010012907D15378012B43
:1052B00002D19388072B03D000207047012070474C
:1052C0001146A623014A01F039BA00BF54B70010B5
:1052D0000346012201481A70704700BF34B700101E
:1052E00008B50B68B3F5966F00D008BD00224FF0EB
:1052F000FF301146FDF7E8FE024A034B10601960CB
:10530000704700BF782200207C220020184B70B527
:105310001A68002A28D0EFF3108172B6D2E8CF4F76
:105320000120002CFAD1C2E8440F002CF6D1BFF3C3
:105330005F8F00220F4C186859602270C0E88F2FD1
:1053400081F31088002400250B4E3078FCF746FCD2
:1053500020B9002400252046294670BD3078FCF78E
:105360004DFC2046294670BD4FF47A740025EBE7CA
:1053700018270020B5270020B4270020014B1878FB
:10538000FCF73CBCB427002038B5044600200D468D
:1053900001F004FBA8B3002001F016FB88B3FDF771
:1053A000B5FB4FF0FF3E6FF0004C174A821841F1F9
:1053B000000396457CEB03013CBF724663461348ED
:1053C00005F072FEE8B1002001F0E8FA58B90021BA
:1053D0004FF0FF3000F00AFD6FF002040B4805F0BB
:1053E00057FE204638BD002001F0EEFA0028EED02E
:1053F00021462A46002001F0F1FA04460028EDD1AA
:10540000EAE76FF00204ECE740420F00902700202B
:1054100008B5FDF77BFB4FF0FF3E6FF0004C0F4AE5
:10542000821841F1000396457CEB03013CBF7246B4
:1054300063460B4805F038FE70B14FF0FF30002195
:1054400000F0D4FC002001F011FB0028F5D1BDE8EC
:105450000840034805F01CBE08BD00BF40420F00D5
:10546000902700202DE9F84380460F46FDF74EFBBC
:105470004FF0FF356FF00044334A821841F10003CA
:10548000954274EB03013CBF2A4623462F4805F0A2
:105490000BFE08B9BDE8F883002001F07FFA002870
:1054A00047D0002F40DD0025DFF8A890284E13E0FC
:1054B0002246002001F020FB002104464FF0FF307F
:1054C00000F094FC002001F0D1FAFDF71FFBC9E9C0
:1054D00000012544AF4227DD002001F02DFB7C1B9D
:1054E0008442A8BF044608EB0501002CE0D1214608
:1054F0004FF0FF3000F07AFC204601F0B7FA20466A
:1055000001F04CFA80B1204601F016FB0028E1D1F1
:10551000FDF7FCFAD9F80030D9F804209B1942F1C4
:10552000000283428A41D5D20848BDE8F84305F01D
:10553000AFBD00200021074BC3E90001BDE8F843DF
:10554000024805F0A5BD00BF40420F009027002093
:1055500020A10700C81A002030B5002185B02E48D0
:1055600005F0AAFDF0B92D4B1A68CAB1EFF310810E
:1055700072B6D2E8CF5F0124002DFAD1C2E8454FC0
:10558000002DF6D1BFF35F8F254C1D68227859603E
:10559000D3B201222270C5E88F0F81F31088CBB1FE
:1055A00005B030BD00214FF0FF3000F01FFC00209F
:1055B00001F00AFA0446184805F06AFD002CEFD005
:1055C000184B1B68002BEBD0174A106805B0BDE8DC
:1055D00030401847FDF724F80446FDF797FA4FF0DE
:1055E000FF3C6FF0004510F57A7241F100039445DD
:1055F00075EB030138BF2B464FF000014FF001055A
:1056000020460A4C38BF6246CDE901150094FDF7EB
:105610000BF805B030BD00BF9027002018270020F0
:10562000B5270020782200207C2200200D53001096
:105630004FF0504330B585B01C68FCF7F1FFFDF723
:1056400005F9A04202D0002005B030BD00212A4B50
:1056500008461B7801F038FD28480368002B47D026
:105660000120FCF763FD0346254C2649C0B2237098
:10567000FCF7E0FA20780121FCF79AFA0E20FCF7FB
:10568000C9FA40BB204B0125C3E90000FCF7C8FF65
:105690000446FDF73BFA4FF0FF3E6FF0004C10F56B
:1056A0007A7241F1000396457CEB03014FF0000153
:1056B0002046164C3CBF72466346CDE90115009466
:1056C000FCF7B2FF0028BEDB01211148FFF7BCFC4C
:1056D000012005B030BD0120FCF726FA01460A483A
:1056E000FCF780FD00220E200A49FCF7D3FAEBE715
:1056F000FCF75CFDB4E700BFA4B9001090270020C0
:10570000B427002059550010182700200D53001011
:10571000A81300207D5300100048704798B800106F
:105720000048704744B8001038B5184B04461A7842
:105730000AB344B940F209424FF44173144D6A80F0
:1057400013482B8038BD052C1DD8124B104D53F833
:10575000241028460023013903E0132B20F8022FE0
:105760000ED011F8012F0133DBB2002AF5D15B0016
:1057700043F44073E4E71121184600F025F8D8E718
:105780004FF44A73DCE7002038BD00BF98270020A3
:10579000B02200202CB8001000B545F247308BB085
:1057A000FDF786FC01220346092101A89847DDE99F
:1057B0000332044912BA1BBAC1E900230BB05DF8E9
:1057C00004FB00BF48270020012901F1FF3300F04E
:1057D000B3805D490A784FEA121C9F2A8CBF0CF1F6
:1057E000370C0CF1300C012B80F800C000F0A780C2
:1057F00002F00F02092A8CBF37323032022B42707E
:1058000000F09D804A784FEA121C9F2A8CBF0CF151
:10581000370C0CF1300C032B80F802C000F08F80A5
:1058200002F00F02092A8CBF37323032042BC270CB
:1058300000F085808A784FEA121C9F2A8CBF0CF1F9
:10584000370C0CF1300C052B80F804C077D002F037
:105850000F02092A8CBF37323032062B42716ED0CC
:10586000CA784FEA121C9F2A8CBF0CF1370C0CF13E
:10587000300C072B80F806C061D002F00F02092A15
:105880008CBF37323032082BC27158D00A794FEAB8
:10589000121C9F2A8CBF0CF1370C0CF1300C092B19
:1058A00080F808C04BD002F00F02092A8CBF3732B3
:1058B00030320A2B427242D04A794FEA121C9F2A98
:1058C0008CBF0CF1370C0CF1300C0B2B80F80AC09C
:1058D00035D002F00F02092A8CBF373230320C2B40
:1058E000C2722CD08A794FEA121C9F2A8CBF0CF10D
:1058F000370C0CF1300C0D2B80F80CC01FD002F0CF
:105900000F02092A8CBF373230320E2B427316D069
:10591000CA7911099F2A8CBF373130310F2B81731F
:105920000DD002F00F02092A94BF30323732102B0B
:10593000C27318BF103002D00023037070471844A0
:1059400000230370704700BF4827002070B500F0A7
:105950002DF90C234026194CFF22A3670E2018496D
:10596000FCF798F932460021164805F0ABF80125FE
:10597000002380211348144A41844570068306871A
:1059800082604360136042F8043C80F8213080F864
:105990003B3043620D4B4FF00056C360C362803B07
:1059A000836205F08DFB4FF480320949094B256471
:1059B0002846E664C4F89010DA6470BD0000115007
:1059C0001D040020F022002084001050000110501F
:1059D00010D001000020115001210E20FCF7E8B882
:1059E00000220248114600F001B900BF1023002038
:1059F000044B197021B14FF40032034BC3F89020CF
:105A0000704700BFAF270020002011500B785B06C5
:105A100002D14B78052B00D070474B88014ADBB28E
:105A20001360704700001150CB782DE9F04103F06E
:105A3000030EBEF1010FC3F301005BD0002791F804
:105A400002C0344C0CF07F025600898806EBDC1350
:105A500004EB43134FEADC15D876C1F30A0185F055
:105A6000010083F802C019835870DF70D3008DBB2A
:105A70002948043304EB821C03EB0008CCF80880AF
:105A80001F5082B3254BD2001344CCF80430244B72
:105A90003F311A6821F03F01BEF1020F08BF4900F3
:105AA000114419601F4B771904EB47179942FA60AC
:105AB0002BD82E4404EB4613D97E82F0A04282F408
:105AC00080125B6842EA816242F000421A60012063
:105AD000BDE8F081104804EB821C0344CCF8283068
